{
  "transactions": [
    {
      "hash": "0x645cdd133e2818e4747bbf94218b7192ba9894e34a9c9ed93217df28e8e269f6",
      "transactionType": "CALL",
      "contractName": null,
      "contractAddress": "0x036cbd53842c5426634e7929541ec2318f3dcf7e",
      "function": "approve(address,uint256)",
      "arguments": [
        "0x7c60570CAd1ec7f813dD7Ec6e09568a018b29644",
        "1"
      ],
      "transaction": {
        "from": "0x8dc791f24589f480ff31fe654d09bd01b5c5c2e8",
        "to": "0x036cbd53842c5426634e7929541ec2318f3dcf7e",
        "gas": "0xdae0",
        "value": "0x0",
        "input": "0x095ea7b30000000000000000000000007c60570cad1ec7f813dd7ec6e09568a018b296440000000000000000000000000000000000000000000000000000000000000001",
        "nonce": "0x104",
        "chainId": "0x14a34"
      },
      "additionalContracts": [],
      "isFixedGasLimit": false
    },
    {
      "hash": "0xdc94b0ac1787c6b9fdd7046933c69f10f010b8cb94358dd691a912cb89c871b9",
      "transactionType": "CALL",
      "contractName": null,
      "contractAddress": "0x7c60570cad1ec7f813dd7ec6e09568a018b29644",
      "function": "purchase(uint256,uint256)",
      "arguments": [
        "10",
        "1"
      ],
      "transaction": {
        "from": "0x8dc791f24589f480ff31fe654d09bd01b5c5c2e8",
        "to": "0x7c60570cad1ec7f813dd7ec6e09568a018b29644",
        "gas": "0x4e958",
        "value": "0x0",
        "input": "0x70876c98000000000000000000000000000000000000000000000000000000000000000a0000000000000000000000000000000000000000000000000000000000000001",
        "nonce": "0x105",
        "chainId": "0x14a34"
      },
      "additionalContracts": [],
      "isFixedGasLimit": false
    }
  ],
  "receipts": [
    {
      "status": "0x1",
      "cumulativeGasUsed": "0x14a3f",
      "logs": [
        {
          "address": "0x036cbd53842c5426634e7929541ec2318f3dcf7e",
          "topics": [
            "0x8c5be1e5ebec7d5bd14f71427d1e84f3dd0314c0f7b2291e5b200ac8c7c3b925",
            "0x0000000000000000000000008dc791f24589f480ff31fe654d09bd01b5c5c2e8",
            "0x0000000000000000000000007c60570cad1ec7f813dd7ec6e09568a018b29644"
          ],
          "data": "0x0000000000000000000000000000000000000000000000000000000000000001",
          "blockHash": "0x0000000000000000000000000000000000000000000000000000000000000000",
          "blockNumber": "0x2394456",
          "blockTimestamp": "0x6985e78c",
          "transactionHash": "0xdc94b0ac1787c6b9fdd7046933c69f10f010b8cb94358dd691a912cb89c871b9",
          "transactionIndex": "0x1",
          "logIndex": "0x0",
          "removed": false
        }
      ],
      "logsBloom": "0x00000000040000000000000000800000000000000000000000000000000000000000000000000000000000000000000000000000000000000000000000200000000000000000000000000000000000000000000000000000000000000000000800000000000000000000000000000000000000000000000000000800000000000000000000004000000000000000000000000000000000000000000000000000020000000000000000000000000000000000000000000000000000000000000000000000000000000004000000000000000000000000000000000001000000000010000000000000000000000020000000000000000000000000000000000000",
      "type": "0x2",
      "transactionHash": "0xdc94b0ac1787c6b9fdd7046933c69f10f010b8cb94358dd691a912cb89c871b9",
      "transactionIndex": "0x1",
      "blockHash": "0x0000000000000000000000000000000000000000000000000000000000000000",
      "blockNumber": "0x2394456",
      "gasUsed": "0x95a9",
      "effectiveGasPrice": "0x124f80",
      "blobGasUsed": "0x79e0",
      "from": "0x8dc791f24589f480ff31fe654d09bd01b5c5c2e8",
      "to": "0x036cbd53842c5426634e7929541ec2318f3dcf7e",
      "contractAddress": null,
      "daFootprintGasScalar": "0x138",
      "l1BaseFeeScalar": "0x44d",
      "l1BlobBaseFee": "0x383bd2a",
      "l1BlobBaseFeeScalar": "0xa118b",
      "l1Fee": "0x157a4c9d4",
      "l1GasPrice": "0x3f6d2f71",
      "l1GasUsed": "0x640"
    },
    {
      "status": "0x1",
      "cumulativeGasUsed": "0x4d88b",
      "logs": [
        {
          "address": "0x036cbd53842c5426634e7929541ec2318f3dcf7e",
          "topics": [
            "0xddf252ad1be2c89b69c2b068fc378daa952ba7f163c4a11628f55a4df523b3ef",
            "0x0000000000000000000000008dc791f24589f480ff31fe654d09bd01b5c5c2e8",
            "0x0000000000000000000000007c60570cad1ec7f813dd7ec6e09568a018b29644"
          ],
          "data": "0x0000000000000000000000000000000000000000000000000000000000000001",
          "blockHash": "0x0000000000000000000000000000000000000000000000000000000000000000",
          "blockNumber": "0x2394456",
          "blockTimestamp": "0x6985e78c",
          "transactionHash": "0x645cdd133e2818e4747bbf94218b7192ba9894e34a9c9ed93217df28e8e269f6",
          "transactionIndex": "0x2",
          "logIndex": "0x1",
          "removed": false
        },
        {
          "address": "0x7c60570cad1ec7f813dd7ec6e09568a018b29644",
          "topics": [
            "0xddf252ad1be2c89b69c2b068fc378daa952ba7f163c4a11628f55a4df523b3ef",
            "0x0000000000000000000000007c60570cad1ec7f813dd7ec6e09568a018b29644",
            "0x0000000000000000000000008dc791f24589f480ff31fe654d09bd01b5c5c2e8"
          ],
          "data": "0x000000000000000000000000000000000000000000000000000000000000000a",
          "blockHash": "0x0000000000000000000000000000000000000000000000000000000000000000",
          "blockNumber": "0x2394456",
          "blockTimestamp": "0x6985e78c",
          "transactionHash": "0x645cdd133e2818e4747bbf94218b7192ba9894e34a9c9ed93217df28e8e269f6",
          "transactionIndex": "0x2",
          "logIndex": "0x2",
          "removed": false
        },
        {
          "address": "0x7c60570cad1ec7f813dd7ec6e09568a018b29644",
          "topics": [
            "0xf761777482b4b40d2bcc0d050cfba6829900a2d8b3484bd0244ec0feeb3db504",
            "0x0000000000000000000000008dc791f24589f480ff31fe654d09bd01b5c5c2e8"
          ],
          "data": "0x000000000000000000000000000000000000000000000000000000000000000a0000000000000000000000000000000000000000000000000000000000000001",
          "blockHash": "0x0000000000000000000000000000000000000000000000000000000000000000",
          "blockNumber": "0x2394456",
          "blockTimestamp": "0x6985e78c",
          "transactionHash": "0x645cdd133e2818e4747bbf94218b7192ba9894e34a9c9ed93217df28e8e269f6",
          "transactionIndex": "0x2",
          "logIndex": "0x3",
          "removed": false
        }
      ],
      "logsBloom": "0x00000000040000000000000040800000000000000000000000000000000000000000000000000000000000000000000000000000000000000000000000000000000000000000000000000008000000000000000000000000000000000000000800000000000000100000000000000000000000000000000000000810000000000000000000004000000000000000000000000000000000004000000000000000000000000000000000000000000000000000000000000000000000000000000000000002000000000004000000000000000000000000000000000001000000000000000000000000000000000020000000000000000010001000000000000080",
      "type": "0x2",
      "transactionHash": "0x645cdd133e2818e4747bbf94218b7192ba9894e34a9c9ed93217df28e8e269f6",
      "transactionIndex": "0x2",
      "blockHash": "0x0000000000000000000000000000000000000000000000000000000000000000",
      "blockNumber": "0x2394456",
      "gasUsed": "0x38e4c",
      "effectiveGasPrice": "0x124f80",
      "blobGasUsed": "0x79e0",
      "from": "0x8dc791f24589f480ff31fe654d09bd01b5c5c2e8",
      "to": "0x7c60570cad1ec7f813dd7ec6e09568a018b29644",
      "contractAddress": null,
      "daFootprintGasScalar": "0x138",
      "l1BaseFeeScalar": "0x44d",
      "l1BlobBaseFee": "0x383bd2a",
      "l1BlobBaseFeeScalar": "0xa118b",
      "l1Fee": "0x157a4c9d4",
      "l1GasPrice": "0x3f6d2f71",
      "l1GasUsed": "0x640"
    }
  ],
  "libraries": [],
  "pending": [],
  "returns": {},
  "timestamp": 1770383243771,
  "chain": 84532,
  "commit": "67d0ee4"
}