{
  "transactions": [
    {
      "hash": "0x66d5bdbaa7be10d3bc017b9dbacbf7bc5eb009da66b55e5ae890a41f32d125f5",
      "transactionType": "CALL",
      "contractName": null,
      "contractAddress": "0x036cbd53842c5426634e7929541ec2318f3dcf7e",
      "function": "approve(address,uint256)",
      "arguments": [
        "0xc4385a64760f2AeAF03D33f69c65a08c7E1C6bf2",
        "0"
      ],
      "transaction": {
        "from": "0x8dc791f24589f480ff31fe654d09bd01b5c5c2e8",
        "to": "0x036cbd53842c5426634e7929541ec2318f3dcf7e",
        "gas": "0xbf8a",
        "value": "0x0",
        "input": "0x095ea7b3000000000000000000000000c4385a64760f2aeaf03d33f69c65a08c7e1c6bf20000000000000000000000000000000000000000000000000000000000000000",
        "nonce": "0x10b",
        "chainId": "0x14a34"
      },
      "additionalContracts": [],
      "isFixedGasLimit": false
    },
    {
      "hash": "0x855ed8ed01fd06f77b0b8ec18de25a2f87d43f276ca4db1c58916a7f35df4c0f",
      "transactionType": "CALL",
      "contractName": null,
      "contractAddress": "0xc4385a64760f2aeaf03d33f69c65a08c7e1c6bf2",
      "function": "purchase(uint256,uint256)",
      "arguments": [
        "10",
        "0"
      ],
      "transaction": {
        "from": "0x8dc791f24589f480ff31fe654d09bd01b5c5c2e8",
        "to": "0xc4385a64760f2aeaf03d33f69c65a08c7e1c6bf2",
        "gas": "0x3fb4f",
        "value": "0x0",
        "input": "0x70876c98000000000000000000000000000000000000000000000000000000000000000a0000000000000000000000000000000000000000000000000000000000000000",
        "nonce": "0x10c",
        "chainId": "0x14a34"
      },
      "additionalContracts": [],
      "isFixedGasLimit": false
    }
  ],
  "receipts": [
    {
      "status": "0x1",
      "cumulativeGasUsed": "0x6ce632",
      "logs": [
        {
          "address": "0x036cbd53842c5426634e7929541ec2318f3dcf7e",
          "topics": [
            "0x8c5be1e5ebec7d5bd14f71427d1e84f3dd0314c0f7b2291e5b200ac8c7c3b925",
            "0x0000000000000000000000008dc791f24589f480ff31fe654d09bd01b5c5c2e8",
            "0x000000000000000000000000c4385a64760f2aeaf03d33f69c65a08c7e1c6bf2"
          ],
          "data": "0x0000000000000000000000000000000000000000000000000000000000000000",
          "blockHash": "0x0000000000000000000000000000000000000000000000000000000000000000",
          "blockNumber": "0x239466e",
          "blockTimestamp": "0x6985ebbc",
          "transactionHash": "0x66d5bdbaa7be10d3bc017b9dbacbf7bc5eb009da66b55e5ae890a41f32d125f5",
          "transactionIndex": "0xe",
          "logIndex": "0x77",
          "removed": false
        }
      ],
      "logsBloom": "0x00000000040000000000000000000000000000000000000000000040000000000000000000000000000000000000000000000000000000000000000000200000000000000000000000000000000000000000000000000000000000000000000800000000000000000000000000000000000000000000000000000800000000000000000000004000000000000000000000000000000080000000000000000000020000000000000000000000100000000000000000000000000000000000000000000000000000000000000000000000000000000000000000000001000000000010000000000000000000000020000000000000000000000000000000000000",
      "type": "0x2",
      "transactionHash": "0x66d5bdbaa7be10d3bc017b9dbacbf7bc5eb009da66b55e5ae890a41f32d125f5",
      "transactionIndex": "0xe",
      "blockHash": "0x0000000000000000000000000000000000000000000000000000000000000000",
      "blockNumber": "0x239466e",
      "gasUsed": "0x8aad",
      "effectiveGasPrice": "0x124f80",
      "blobGasUsed": "0x79e0",
      "from": "0x8dc791f24589f480ff31fe654d09bd01b5c5c2e8",
      "to": "0x036cbd53842c5426634e7929541ec2318f3dcf7e",
      "contractAddress": null,
      "daFootprintGasScalar": "0x138",
      "l1BaseFeeScalar": "0x44d",
      "l1BlobBaseFee": "0x39826a3",
      "l1BlobBaseFeeScalar": "0xa118b",
      "l1Fee": "0x3ebb497529",
      "l1GasPrice": "0x3cbd48d2",
      "l1GasUsed": "0x640"
    },
    {
      "status": "0x1",
      "cumulativeGasUsed": "0x6fc829",
      "logs": [
        {
          "address": "0x036cbd53842c5426634e7929541ec2318f3dcf7e",
          "topics": [
            "0xddf252ad1be2c89b69c2b068fc378daa952ba7f163c4a11628f55a4df523b3ef",
            "0x0000000000000000000000008dc791f24589f480ff31fe654d09bd01b5c5c2e8",
            "0x000000000000000000000000c4385a64760f2aeaf03d33f69c65a08c7e1c6bf2"
          ],
          "data": "0x0000000000000000000000000000000000000000000000000000000000000000",
          "blockHash": "0x0000000000000000000000000000000000000000000000000000000000000000",
          "blockNumber": "0x239466e",
          "blockTimestamp": "0x6985ebbc",
          "transactionHash": "0x855ed8ed01fd06f77b0b8ec18de25a2f87d43f276ca4db1c58916a7f35df4c0f",
          "transactionIndex": "0xf",
          "logIndex": "0x78",
          "removed": false
        },
        {
          "address": "0xc4385a64760f2aeaf03d33f69c65a08c7e1c6bf2",
          "topics": [
            "0xddf252ad1be2c89b69c2b068fc378daa952ba7f163c4a11628f55a4df523b3ef",
            "0x000000000000000000000000c4385a64760f2aeaf03d33f69c65a08c7e1c6bf2",
            "0x0000000000000000000000008dc791f24589f480ff31fe654d09bd01b5c5c2e8"
          ],
          "data": "0x000000000000000000000000000000000000000000000000000000000000000a",
          "blockHash": "0x0000000000000000000000000000000000000000000000000000000000000000",
          "blockNumber": "0x239466e",
          "blockTimestamp": "0x6985ebbc",
          "transactionHash": "0x855ed8ed01fd06f77b0b8ec18de25a2f87d43f276ca4db1c58916a7f35df4c0f",
          "transactionIndex": "0xf",
          "logIndex": "0x79",
          "removed": false
        },
        {
          "address": "0xc4385a64760f2aeaf03d33f69c65a08c7e1c6bf2",
          "topics": [
            "0xf761777482b4b40d2bcc0d050cfba6829900a2d8b3484bd0244ec0feeb3db504",
            "0x0000000000000000000000008dc791f24589f480ff31fe654d09bd01b5c5c2e8"
          ],
          "data": "0x000000000000000000000000000000000000000000000000000000000000000a0000000000000000000000000000000000000000000000000000000000000000",
          "blockHash": "0x0000000000000000000000000000000000000000000000000000000000000000",
          "blockNumber": "0x239466e",
          "blockTimestamp": "0x6985ebbc",
          "transactionHash": "0x855ed8ed01fd06f77b0b8ec18de25a2f87d43f276ca4db1c58916a7f35df4c0f",
          "transactionIndex": "0xf",
          "logIndex": "0x7a",
          "removed": false
        }
      ],
      "logsBloom": "0x00000000040000000000000040000000000000000000000000000040000000000000020000000000000000000000000000000000000000000000000000000000000000000000000000000008000000000000000000000000000000000000000800000000000000100000000000000000000000000000000000000810000000000000000000004000000000000000000000000000000080000000000000000000000000000000000000000000100000000000000000000000000000000000000000000002000400000000000000000000000000000000000000000001000000000000000000000000000000000020004000000000000000000000000000000080",
      "type": "0x2",
      "transactionHash": "0x855ed8ed01fd06f77b0b8ec18de25a2f87d43f276ca4db1c58916a7f35df4c0f",
      "transactionIndex": "0xf",
      "blockHash": "0x0000000000000000000000000000000000000000000000000000000000000000",
      "blockNumber": "0x239466e",
      "gasUsed": "0x2e1f7",
      "effectiveGasPrice": "0x124f80",
      "blobGasUsed": "0x79e0",
      "from": "0x8dc791f24589f480ff31fe654d09bd01b5c5c2e8",
      "to": "0xc4385a64760f2aeaf03d33f69c65a08c7e1c6bf2",
      "contractAddress": null,
      "daFootprintGasScalar": "0x138",
      "l1BaseFeeScalar": "0x44d",
      "l1BlobBaseFee": "0x39826a3",
      "l1BlobBaseFeeScalar": "0xa118b",
      "l1Fee": "0x3ebb497529",
      "l1GasPrice": "0x3cbd48d2",
      "l1GasUsed": "0x640"
    }
  ],
  "libraries": [],
  "pending": [],
  "returns": {},
  "timestamp": 1770384315182,
  "chain": 84532,
  "commit": "67d0ee4"
}