{
  "transactions": [
    {
      "hash": "0xa58ceb4d5cd7241992c296c5e2b6578c65782bc223fc8c9656055a1ba757dba3",
      "transactionType": "CALL",
      "contractName": null,
      "contractAddress": "0x036cbd53842c5426634e7929541ec2318f3dcf7e",
      "function": "approve(address,uint256)",
      "arguments": [
        "0xc4385a64760f2AeAF03D33f69c65a08c7E1C6bf2",
        "10000000"
      ],
      "transaction": {
        "from": "0x8dc791f24589f480ff31fe654d09bd01b5c5c2e8",
        "to": "0x036cbd53842c5426634e7929541ec2318f3dcf7e",
        "gas": "0x12b1b",
        "value": "0x0",
        "input": "0x095ea7b3000000000000000000000000c4385a64760f2aeaf03d33f69c65a08c7e1c6bf20000000000000000000000000000000000000000000000000000000000989680",
        "nonce": "0x10f",
        "chainId": "0x14a34"
      },
      "additionalContracts": [],
      "isFixedGasLimit": false
    },
    {
      "hash": "0xc5a4dea0bc6804c3aa9fc003df1ed649f2382208c7608ce02165afc3f6e40bfe",
      "transactionType": "CALL",
      "contractName": null,
      "contractAddress": "0xc4385a64760f2aeaf03d33f69c65a08c7e1c6bf2",
      "function": "purchase(uint256,uint256)",
      "arguments": [
        "100000000000000000000",
        "10000000"
      ],
      "transaction": {
        "from": "0x8dc791f24589f480ff31fe654d09bd01b5c5c2e8",
        "to": "0xc4385a64760f2aeaf03d33f69c65a08c7e1c6bf2",
        "gas": "0x23f3e",
        "value": "0x0",
        "input": "0x70876c980000000000000000000000000000000000000000000000056bc75e2d631000000000000000000000000000000000000000000000000000000000000000989680",
        "nonce": "0x110",
        "chainId": "0x14a34"
      },
      "additionalContracts": [],
      "isFixedGasLimit": false
    }
  ],
  "receipts": [
    {
      "status": "0x1",
      "cumulativeGasUsed": "0x18b4e6",
      "logs": [
        {
          "address": "0x036cbd53842c5426634e7929541ec2318f3dcf7e",
          "topics": [
            "0x8c5be1e5ebec7d5bd14f71427d1e84f3dd0314c0f7b2291e5b200ac8c7c3b925",
            "0x0000000000000000000000008dc791f24589f480ff31fe654d09bd01b5c5c2e8",
            "0x000000000000000000000000c4385a64760f2aeaf03d33f69c65a08c7e1c6bf2"
          ],
          "data": "0x0000000000000000000000000000000000000000000000000000000000989680",
          "blockHash": "0xb42d8cceea85069272833c32339e196b489f968de5eac2e800c658e4438b9980",
          "blockNumber": "0x23946af",
          "blockTimestamp": "0x6985ec3e",
          "transactionHash": "0xa58ceb4d5cd7241992c296c5e2b6578c65782bc223fc8c9656055a1ba757dba3",
          "transactionIndex": "0x7",
          "logIndex": "0x3b",
          "removed": false
        }
      ],
      "logsBloom": "0x00000000040000000000000000000000000000000000000000000040000000000000000000000000000000000000000000000000000000000000000000200000000000000000000000000000000000000000000000000000000000000000000800000000000000000000000000000000000000000000000000000800000000000000000000004000000000000000000000000000000080000000000000000000020000000000000000000000100000000000000000000000000000000000000000000000000000000000000000000000000000000000000000000001000000000010000000000000000000000020000000000000000000000000000000000000",
      "type": "0x2",
      "transactionHash": "0xa58ceb4d5cd7241992c296c5e2b6578c65782bc223fc8c9656055a1ba757dba3",
      "transactionIndex": "0x7",
      "blockHash": "0xb42d8cceea85069272833c32339e196b489f968de5eac2e800c658e4438b9980",
      "blockNumber": "0x23946af",
      "gasUsed": "0xd88d",
      "effectiveGasPrice": "0x124f80",
      "blobGasUsed": "0x79e0",
      "from": "0x8dc791f24589f480ff31fe654d09bd01b5c5c2e8",
      "to": "0x036cbd53842c5426634e7929541ec2318f3dcf7e",
      "contractAddress": null,
      "daFootprintGasScalar": "0x138",
      "l1BaseFeeScalar": "0x44d",
      "l1BlobBaseFee": "0x3d83679",
      "l1BlobBaseFeeScalar": "0xa118b",
      "l1Fee": "0x167f61510",
      "l1GasPrice": "0x3c54505a",
      "l1GasUsed": "0x640"
    },
    {
      "status": "0x1",
      "cumulativeGasUsed": "0x1a555e",
      "logs": [
        {
          "address": "0x036cbd53842c5426634e7929541ec2318f3dcf7e",
          "topics": [
            "0xddf252ad1be2c89b69c2b068fc378daa952ba7f163c4a11628f55a4df523b3ef",
            "0x0000000000000000000000008dc791f24589f480ff31fe654d09bd01b5c5c2e8",
            "0x000000000000000000000000c4385a64760f2aeaf03d33f69c65a08c7e1c6bf2"
          ],
          "data": "0x0000000000000000000000000000000000000000000000000000000000989680",
          "blockHash": "0x0000000000000000000000000000000000000000000000000000000000000000",
          "blockNumber": "0x23946af",
          "blockTimestamp": "0x6985ec3e",
          "transactionHash": "0xc5a4dea0bc6804c3aa9fc003df1ed649f2382208c7608ce02165afc3f6e40bfe",
          "transactionIndex": "0x8",
          "logIndex": "0x3c",
          "removed": false
        },
        {
          "address": "0xc4385a64760f2aeaf03d33f69c65a08c7e1c6bf2",
          "topics": [
            "0xddf252ad1be2c89b69c2b068fc378daa952ba7f163c4a11628f55a4df523b3ef",
            "0x000000000000000000000000c4385a64760f2aeaf03d33f69c65a08c7e1c6bf2",
            "0x0000000000000000000000008dc791f24589f480ff31fe654d09bd01b5c5c2e8"
          ],
          "data": "0x0000000000000000000000000000000000000000000000056bc75e2d63100000",
          "blockHash": "0x0000000000000000000000000000000000000000000000000000000000000000",
          "blockNumber": "0x23946af",
          "blockTimestamp": "0x6985ec3e",
          "transactionHash": "0xc5a4dea0bc6804c3aa9fc003df1ed649f2382208c7608ce02165afc3f6e40bfe",
          "transactionIndex": "0x8",
          "logIndex": "0x3d",
          "removed": false
        },
        {
          "address": "0xc4385a64760f2aeaf03d33f69c65a08c7e1c6bf2",
          "topics": [
            "0xf761777482b4b40d2bcc0d050cfba6829900a2d8b3484bd0244ec0feeb3db504",
            "0x0000000000000000000000008dc791f24589f480ff31fe654d09bd01b5c5c2e8"
          ],
          "data": "0x0000000000000000000000000000000000000000000000056bc75e2d631000000000000000000000000000000000000000000000000000000000000000989680",
          "blockHash": "0x0000000000000000000000000000000000000000000000000000000000000000",
          "blockNumber": "0x23946af",
          "blockTimestamp": "0x6985ec3e",
          "transactionHash": "0xc5a4dea0bc6804c3aa9fc003df1ed649f2382208c7608ce02165afc3f6e40bfe",
          "transactionIndex": "0x8",
          "logIndex": "0x3e",
          "removed": false
        }
      ],
      "logsBloom": "0x00000000040000000000000040000000000000000000000000000040000000000000020000000000000000000000000000000000000000000000000000000000000000000000000000000008000000000000000000000000000000000000000800000000000000100000000000000000000000000000000000000810000000000000000000004000000000000000000000000000000080000000000000000000000000000000000000000000100000000000000000000000000000000000000000000002000400000000000000000000000000000000000000000001000000000000000000000000000000000020004000000000000000000000000000000080",
      "type": "0x2",
      "transactionHash": "0xc5a4dea0bc6804c3aa9fc003df1ed649f2382208c7608ce02165afc3f6e40bfe",
      "transactionIndex": "0x8",
      "blockHash": "0x0000000000000000000000000000000000000000000000000000000000000000",
      "blockNumber": "0x23946af",
      "gasUsed": "0x1a078",
      "effectiveGasPrice": "0x124f80",
      "blobGasUsed": "0x79e0",
      "from": "0x8dc791f24589f480ff31fe654d09bd01b5c5c2e8",
      "to": "0xc4385a64760f2aeaf03d33f69c65a08c7e1c6bf2",
      "contractAddress": null,
      "daFootprintGasScalar": "0x138",
      "l1BaseFeeScalar": "0x44d",
      "l1BlobBaseFee": "0x3d83679",
      "l1BlobBaseFeeScalar": "0xa118b",
      "l1Fee": "0x167f61510",
      "l1GasPrice": "0x3c54505a",
      "l1GasUsed": "0x640"
    }
  ],
  "libraries": [],
  "pending": [],
  "returns": {},
  "timestamp": 1770384446519,
  "chain": 84532,
  "commit": "67d0ee4"
}